{
  "contractName": "Marketplace",
  "abi": [
    {
      "inputs": [],
      "stateMutability": "nonpayable",
      "type": "constructor"
    },
    {
      "anonymous": false,
      "inputs": [
        {
          "indexed": true,
          "internalType": "uint256",
          "name": "itemId",
          "type": "uint256"
        },
        {
          "indexed": true,
          "internalType": "address",
          "name": "nftContract",
          "type": "address"
        },
        {
          "indexed": true,
          "internalType": "uint256",
          "name": "tokenId",
          "type": "uint256"
        },
        {
          "indexed": false,
          "internalType": "string",
          "name": "tokenURI",
          "type": "string"
        },
        {
          "indexed": false,
          "internalType": "address",
          "name": "seller",
          "type": "address"
        },
        {
          "indexed": false,
          "internalType": "address",
          "name": "owner",
          "type": "address"
        },
        {
          "indexed": false,
          "internalType": "uint256",
          "name": "price",
          "type": "uint256"
        },
        {
          "indexed": false,
          "internalType": "bool",
          "name": "sold",
          "type": "bool"
        },
        {
          "indexed": false,
          "internalType": "enum Marketplace.Actions",
          "name": "action",
          "type": "uint8"
        }
      ],
      "name": "MarketItemEvent",
      "type": "event"
    },
    {
      "inputs": [],
      "name": "getListingPrice",
      "outputs": [
        {
          "internalType": "uint256",
          "name": "",
          "type": "uint256"
        }
      ],
      "stateMutability": "view",
      "type": "function",
      "constant": true
    },
    {
      "inputs": [
        {
          "internalType": "address",
          "name": "nftContract",
          "type": "address"
        },
        {
          "internalType": "uint256",
          "name": "tokenId",
          "type": "uint256"
        },
        {
          "internalType": "uint256",
          "name": "price",
          "type": "uint256"
        }
      ],
      "name": "createMarketItem",
      "outputs": [],
      "stateMutability": "payable",
      "type": "function",
      "payable": true
    },
    {
      "inputs": [
        {
          "internalType": "address",
          "name": "nftContract",
          "type": "address"
        },
        {
          "internalType": "uint256",
          "name": "itemId",
          "type": "uint256"
        }
      ],
      "name": "createMarketSale",
      "outputs": [],
      "stateMutability": "payable",
      "type": "function",
      "payable": true
    }
  ],
  "bytecode": "0x608060405266038d7ea4c6800060045534801561001b57600080fd5b506001600055600380546001600160a01b0319163317905561080d806100426000396000f3fe6080604052600436106100345760003560e01c806312e855851461003957806358eb2df51461005b578063c23b139e14610070575b600080fd5b34801561004557600080fd5b5060045460405190815260200160405180910390f35b61006e61006936600461062f565b610083565b005b61006e61007e366004610605565b610387565b600260005414156100db5760405162461bcd60e51b815260206004820152601f60248201527f5265656e7472616e637947756172643a207265656e7472616e742063616c6c0060448201526064015b60405180910390fd5b6002600055806101235760405162461bcd60e51b8152602060048201526013602482015272446f6e277420646f20667265652062726f202160681b60448201526064016100d2565b60045434146101805760405162461bcd60e51b8152602060048201526024808201527f5072696365206d75737420626520657175616c20746f206c697374696e6720706044820152637269636560e01b60648201526084016100d2565b61018e600180546001019055565b600061019960015490565b6040805160e0810182528281526001600160a01b0387811660208084018281528486018a8152336060870181815260006080890181815260a08a018e815260c08b018381528d8452600598899052928c90209a518b55955160018b018054918b166001600160a01b0319928316179055945160028b0155915160038a018054918a1691861691909117905590516004808a01805492909916919094161790965591519286019290925592516006909401805494151560ff199095169490941790935592516323b872dd60e01b81529182015230602482015260448101869052919250906323b872dd90606401600060405180830381600087803b15801561029f57600080fd5b505af11580156102b3573d6000803e3d6000fd5b505060405163c87b56dd60e01b8152600481018690528592506001600160a01b038716915083907f94e1202554ade43c29e777ed0c4d59490f675e1de79d3494cba5d29f39eeeef990839063c87b56dd9060240160006040518083038186803b15801561031f57600080fd5b505afa158015610333573d6000803e3d6000fd5b505050506040513d6000823e601f3d908101601f1916820160405261035b9190810190610662565b336000886000806040516103749695949392919061070f565b60405180910390a4505060016000555050565b600260005414156103da5760405162461bcd60e51b815260206004820152601f60248201527f5265656e7472616e637947756172643a207265656e7472616e742063616c6c0060448201526064016100d2565b600260008181558281526005602081905260408083209182015493820154600390920154905191926001600160a01b039091169182913480156108fc02929091818181858888f19350505050158015610437573d6000803e3d6000fd5b506040516323b872dd60e01b8152306004820152336024820152604481018390526001600160a01b038616906323b872dd90606401600060405180830381600087803b15801561048657600080fd5b505af115801561049a573d6000803e3d6000fd5b50505060008581526005602052604090206004810180546001600160a01b03191633179055600601805460ff19166001179055506104dc600280546001019055565b6003546004546040516001600160a01b039092169181156108fc0291906000818181858888f19350505050158015610518573d6000803e3d6000fd5b5060405163c87b56dd60e01b81526004810183905282906001600160a01b0387169086907f94e1202554ade43c29e777ed0c4d59490f675e1de79d3494cba5d29f39eeeef990839063c87b56dd9060240160006040518083038186803b15801561058157600080fd5b505afa158015610595573d6000803e3d6000fd5b505050506040513d6000823e601f3d908101601f191682016040526105bd9190810190610662565b8533896001806040516105d59695949392919061070f565b60405180910390a450506001600055505050565b80356001600160a01b038116811461060057600080fd5b919050565b6000806040838503121561061857600080fd5b610621836105e9565b946020939093013593505050565b60008060006060848603121561064457600080fd5b61064d846105e9565b95602085013595506040909401359392505050565b60006020828403121561067457600080fd5b815167ffffffffffffffff8082111561068c57600080fd5b818401915084601f8301126106a057600080fd5b8151818111156106b2576106b26107c1565b604051601f8201601f19908116603f011681019083821181831017156106da576106da6107c1565b816040528281528760208487010111156106f357600080fd5b610704836020830160208801610791565b979650505050505050565b60c08152600087518060c084015261072e8160e0850160208c01610791565b6001600160a01b03888116602085015287166040840152606083018690528415156080840152601f01601f1916820160e00190506002831061078057634e487b7160e01b600052602160045260246000fd5b8260a0830152979650505050505050565b60005b838110156107ac578181015183820152602001610794565b838111156107bb576000848401525b50505050565b634e487b7160e01b600052604160045260246000fdfea26469706673582212200f7c2264de6d96e1c3e048bac8f9f5694fd757cd357006c9102064c109379f5e64736f6c63430008070033",
  "immutableReferences": {},
  "source": "// SPDX-License-Identifier: MIT OR Apache-2.0\npragma solidity ^0.8.3;\n\nimport \"@openzeppelin/contracts/utils/Counters.sol\";\nimport \"@openzeppelin/contracts/security/ReentrancyGuard.sol\";\nimport \"@openzeppelin/contracts/token/ERC721/ERC721.sol\";\nimport \"@openzeppelin/contracts/token/ERC721/extensions/ERC721URIStorage.sol\";\n\ncontract Marketplace is ReentrancyGuard {\n     using Counters for Counters.Counter;\n    Counters.Counter private _itemIds;\n    Counters.Counter private _itemsSold;\n\n    address payable owner;\n    uint256 listingPrice = 0.001 ether;\n    enum Actions { Sell, Buy }\n\n\n    constructor() {\n        owner = payable(msg.sender);\n    }\n\n    struct MarketItem {\n        uint itemId;\n        address nftContract;\n        uint256 tokenId;\n        address payable seller;\n        address payable owner;\n        uint256 price;\n        bool sold;\n    }\n\n    mapping(uint256 => MarketItem) private idToMarketItem;\n\n    event MarketItemEvent (\n        uint indexed itemId,\n        address indexed nftContract,\n        uint256 indexed tokenId,\n        string tokenURI,\n        address seller,\n        address owner,\n        uint256 price,\n        bool sold,\n        Actions action\n    );\n\n    function getListingPrice() public view returns (uint256) {\n        return listingPrice;\n    }\n\n    function createMarketItem(address nftContract, \n    uint256 tokenId, uint256 price) public payable nonReentrant {\n        require(price > 0, \"Don't do free bro !\");\n        require(msg.value == listingPrice, \"Price must be equal to listing price\");\n        _itemIds.increment();\n        uint256 itemId = _itemIds.current();\n        idToMarketItem[itemId] = MarketItem(\n            itemId,\n            nftContract,\n            tokenId,\n            payable(msg.sender),\n            payable(address(0)),\n            price,\n            false\n        );\n\n        IERC721(nftContract).transferFrom(msg.sender, address(this), tokenId);\n\n        emit MarketItemEvent(itemId, nftContract, tokenId, ERC721URIStorage(nftContract).tokenURI(tokenId), msg.sender, address(0), price, false, Actions.Sell);\n    }\n\n    function createMarketSale(address nftContract, uint256 itemId) public payable nonReentrant {\n        uint256 price = idToMarketItem[itemId].price;\n        uint256 tokenId = idToMarketItem[itemId].tokenId;\n        address seller = idToMarketItem[itemId].seller;\n        // require(msg.value == price, \"Please submit the asking price in order to complete the purchase\");\n\n        idToMarketItem[itemId].seller.transfer(msg.value);\n        IERC721(nftContract).transferFrom(address(this), msg.sender, tokenId);\n        idToMarketItem[itemId].owner = payable(msg.sender);\n        idToMarketItem[itemId].sold = true;\n        _itemsSold.increment();\n        payable(owner).transfer(listingPrice);\n\n        emit MarketItemEvent(itemId, nftContract, tokenId, ERC721URIStorage(nftContract).tokenURI(tokenId), seller, msg.sender, price, true, Actions.Buy);\n    }\n\n\n}",
  "sourcePath": "/Users/khacvy/Desktop/CodeForFood/working/resources/fullstack/solidity/nft-eawy/contracts/Marketplace.sol",
  "compiler": {
    "name": "solc",
    "version": "0.8.7+commit.e28d00a7.Emscripten.clang"
  },
  "schemaVersion": "3.4.2",
  "updatedAt": "2021-09-11T05:58:52.802Z",
  "networkType": "ethereum",
  "devdoc": {
    "kind": "dev",
    "methods": {},
    "version": 1
  },
  "userdoc": {
    "kind": "user",
    "methods": {},
    "version": 1
  }
}